{
  "_format": "hh-sol-artifact-1",
  "contractName": "Book",
  "sourceName": "contracts/Valve.sol",
  "abi": [
    {
      "inputs": [
        {
          "internalType": "uint256",
          "name": "",
          "type": "uint256"
        }
      ],
      "name": "percents",
      "outputs": [
        {
          "internalType": "uint256",
          "name": "percent",
          "type": "uint256"
        },
        {
          "internalType": "address",
          "name": "addr",
          "type": "address"
        }
      ],
      "stateMutability": "view",
      "type": "function"
    },
    {
      "inputs": [
        {
          "components": [
            {
              "internalType": "uint256",
              "name": "percent",
              "type": "uint256"
            },
            {
              "internalType": "address",
              "name": "addr",
              "type": "address"
            }
          ],
          "internalType": "struct Book.Percent[]",
          "name": "_percents",
          "type": "tuple[]"
        }
      ],
      "name": "setPercents",
      "outputs": [],
      "stateMutability": "nonpayable",
      "type": "function"
    },
    {
      "inputs": [],
      "name": "sumPercent",
      "outputs": [
        {
          "internalType": "uint256",
          "name": "",
          "type": "uint256"
        }
      ],
      "stateMutability": "view",
      "type": "function"
    }
  ],
  "bytecode": "0x60806040526000805534801561001457600080fd5b506106ed806100246000396000f3fe608060405234801561001057600080fd5b50600436106100415760003560e01c80631a32b41a1461004657806327ffd3cd146100645780638db1342d14610080575b600080fd5b61004e6100b1565b60405161005b919061025b565b60405180910390f35b61007e600480360381019061007991906102e5565b6100b7565b005b61009a6004803603810190610095919061035e565b610184565b6040516100a89291906103cc565b60405180910390f35b60015481565b600260006100c591906101d8565b600060018190555060005b828290508110156101755760028383838181106100f0576100ef6103f5565b5b9050604002019080600181540180825580915050600190039060005260206000209060020201600090919091909150818161012b91906105fe565b50508282828181106101405761013f6103f5565b5b905060400201600001356001600082825461015b919061063b565b92505081905550808061016d9061066f565b9150506100d0565b50818190506000819055505050565b6002818154811061019457600080fd5b90600052602060002090600202016000915090508060000154908060010160009054906101000a900473ffffffffffffffffffffffffffffffffffffffff16905082565b50805460008255600202906000526020600020908101906101f991906101fc565b50565b5b8082111561023e576000808201600090556001820160006101000a81549073ffffffffffffffffffffffffffffffffffffffff0219169055506002016101fd565b5090565b6000819050919050565b61025581610242565b82525050565b6000602082019050610270600083018461024c565b92915050565b600080fd5b600080fd5b600080fd5b600080fd5b600080fd5b60008083601f8401126102a5576102a4610280565b5b8235905067ffffffffffffffff8111156102c2576102c1610285565b5b6020830191508360408202830111156102de576102dd61028a565b5b9250929050565b600080602083850312156102fc576102fb610276565b5b600083013567ffffffffffffffff81111561031a5761031961027b565b5b6103268582860161028f565b92509250509250929050565b61033b81610242565b811461034657600080fd5b50565b60008135905061035881610332565b92915050565b60006020828403121561037457610373610276565b5b600061038284828501610349565b91505092915050565b600073ffffffffffffffffffffffffffffffffffffffff82169050919050565b60006103b68261038b565b9050919050565b6103c6816103ab565b82525050565b60006040820190506103e1600083018561024c565b6103ee60208301846103bd565b9392505050565b7f4e487b7100000000000000000000000000000000000000000000000000000000600052603260045260246000fd5b6000813561043181610332565b80915050919050565b60008160001b9050919050565b60007fffffffffffffffffffffffffffffffffffffffffffffffffffffffffffffffff6104738461043a565b9350801983169250808416831791505092915050565b6000819050919050565b60006104ae6104a96104a484610242565b610489565b610242565b9050919050565b6000819050919050565b6104c882610493565b6104db6104d4826104b5565b8354610447565b8255505050565b6104eb816103ab565b81146104f657600080fd5b50565b60008135610506816104e2565b80915050919050565b600073ffffffffffffffffffffffffffffffffffffffff61052f8461043a565b9350801983169250808416831791505092915050565b600061056061055b6105568461038b565b610489565b61038b565b9050919050565b600061057282610545565b9050919050565b600061058482610567565b9050919050565b6000819050919050565b61059e82610579565b6105b16105aa8261058b565b835461050f565b8255505050565b6000810160008301806105ca81610424565b90506105d681846104bf565b5050506001810160208301806105eb816104f9565b90506105f78184610595565b5050505050565b61060882826105b8565b5050565b7f4e487b7100000000000000000000000000000000000000000000000000000000600052601160045260246000fd5b600061064682610242565b915061065183610242565b92508282019050808211156106695761066861060c565b5b92915050565b600061067a82610242565b91507fffffffffffffffffffffffffffffffffffffffffffffffffffffffffffffffff82036106ac576106ab61060c565b5b60018201905091905056fea26469706673582212203bedf4ef669b1b0e056529b50ac70c1c12061db4d7fadead581b5596526513e864736f6c63430008110033",
  "linkReferences": {},
  "deployedLinkReferences": {}
}