{
  "_format": "hh-sol-artifact-1",
  "contractName": "Valve",
  "sourceName": "contracts/Valve.sol",
  "abi": [
    {
      "inputs": [
        {
          "internalType": "address",
          "name": "_token",
          "type": "address"
        }
      ],
      "name": "Split",
      "outputs": [],
      "stateMutability": "nonpayable",
      "type": "function"
    },
    {
      "inputs": [],
      "name": "lastGasLeft",
      "outputs": [
        {
          "internalType": "uint256",
          "name": "",
          "type": "uint256"
        }
      ],
      "stateMutability": "view",
      "type": "function"
    },
    {
      "inputs": [
        {
          "internalType": "uint256",
          "name": "",
          "type": "uint256"
        }
      ],
      "name": "percents",
      "outputs": [
        {
          "internalType": "uint256",
          "name": "percent",
          "type": "uint256"
        },
        {
          "internalType": "address",
          "name": "addr",
          "type": "address"
        }
      ],
      "stateMutability": "view",
      "type": "function"
    },
    {
      "inputs": [
        {
          "components": [
            {
              "internalType": "uint256",
              "name": "percent",
              "type": "uint256"
            },
            {
              "internalType": "address",
              "name": "addr",
              "type": "address"
            }
          ],
          "internalType": "struct Book.Percent[]",
          "name": "_percents",
          "type": "tuple[]"
        }
      ],
      "name": "setPercents",
      "outputs": [],
      "stateMutability": "nonpayable",
      "type": "function"
    },
    {
      "inputs": [],
      "name": "sumPercent",
      "outputs": [
        {
          "internalType": "uint256",
          "name": "",
          "type": "uint256"
        }
      ],
      "stateMutability": "view",
      "type": "function"
    },
    {
      "inputs": [],
      "name": "width",
      "outputs": [
        {
          "internalType": "uint256",
          "name": "",
          "type": "uint256"
        }
      ],
      "stateMutability": "view",
      "type": "function"
    }
  ],
  "bytecode": "0x6080604052600080556000600355600060045534801561001e57600080fd5b50610d6c8061002e6000396000f3fe608060405234801561001057600080fd5b50600436106100625760003560e01c80631a32b41a1461006757806327ffd3cd1461008557806349e5b9b3146100a15780638db1342d146100bf5780639ededf77146100f0578063d54a497a1461010e575b600080fd5b61006f61012a565b60405161007c919061064f565b60405180910390f35b61009f600480360381019061009a91906106d9565b610130565b005b6100a96101fd565b6040516100b6919061064f565b60405180910390f35b6100d960048036038101906100d49190610752565b610203565b6040516100e79291906107c0565b60405180910390f35b6100f8610257565b604051610105919061064f565b60405180910390f35b61012860048036038101906101239190610815565b61025d565b005b60015481565b6002600061013e91906105cc565b600060018190555060005b828290508110156101ee57600283838381811061016957610168610842565b5b905060400201908060018154018082558091505060019003906000526020600020906002020160009091909190915081816101a49190610a34565b50508282828181106101b9576101b8610842565b5b90506040020160000135600160008282546101d49190610a71565b9250508190555080806101e690610aa5565b915050610149565b50818190506000819055505050565b60035481565b6002818154811061021357600080fd5b90600052602060002090600202016000915090508060000154908060010160009054906101000a900473ffffffffffffffffffffffffffffffffffffffff16905082565b60045481565b60005a90506000805411156105c857600060048190555060008273ffffffffffffffffffffffffffffffffffffffff166370a08231306040518263ffffffff1660e01b81526004016102af9190610aed565b602060405180830381865afa1580156102cc573d6000803e3d6000fd5b505050506040513d601f19601f820116820180604052508101906102f09190610b1d565b905060005b600054811015610413578373ffffffffffffffffffffffffffffffffffffffff1663a9059cbb6002838154811061032f5761032e610842565b5b906000526020600020906002020160010160009054906101000a900473ffffffffffffffffffffffffffffffffffffffff166001546002858154811061037857610377610842565b5b906000526020600020906002020160000154866103959190610b4a565b61039f9190610bbb565b6040518363ffffffff1660e01b81526004016103bc929190610bec565b6020604051808303816000875af11580156103db573d6000803e3d6000fd5b505050506040513d601f19601f820116820180604052508101906103ff9190610c4d565b50808061040b90610aa5565b9150506102f5565b506000805460025a6104259190610bbb565b61042f9190610bbb565b905060005b6000548110156105b25760006002828154811061045457610453610842565b5b906000526020600020906002020160010160009054906101000a900473ffffffffffffffffffffffffffffffffffffffff1673ffffffffffffffffffffffffffffffffffffffff1683876040516024016104ae9190610aed565b6040516020818303038152906040527fd54a497a000000000000000000000000000000000000000000000000000000007bffffffffffffffffffffffffffffffffffffffffffffffffffffffff19166020820180517bffffffffffffffffffffffffffffffffffffffffffffffffffffffff83818316178352505050506040516105389190610ceb565b60006040518083038160008787f1925050503d8060008114610576576040519150601f19603f3d011682016040523d82523d6000602084013e61057b565b606091505b50509050801561059e576004600081548092919061059890610aa5565b91905055505b5080806105aa90610aa5565b915050610434565b505a836105bf9190610d02565b60038190555050505b5050565b50805460008255600202906000526020600020908101906105ed91906105f0565b50565b5b80821115610632576000808201600090556001820160006101000a81549073ffffffffffffffffffffffffffffffffffffffff0219169055506002016105f1565b5090565b6000819050919050565b61064981610636565b82525050565b60006020820190506106646000830184610640565b92915050565b600080fd5b600080fd5b600080fd5b600080fd5b600080fd5b60008083601f84011261069957610698610674565b5b8235905067ffffffffffffffff8111156106b6576106b5610679565b5b6020830191508360408202830111156106d2576106d161067e565b5b9250929050565b600080602083850312156106f0576106ef61066a565b5b600083013567ffffffffffffffff81111561070e5761070d61066f565b5b61071a85828601610683565b92509250509250929050565b61072f81610636565b811461073a57600080fd5b50565b60008135905061074c81610726565b92915050565b6000602082840312156107685761076761066a565b5b60006107768482850161073d565b91505092915050565b600073ffffffffffffffffffffffffffffffffffffffff82169050919050565b60006107aa8261077f565b9050919050565b6107ba8161079f565b82525050565b60006040820190506107d56000830185610640565b6107e260208301846107b1565b9392505050565b6107f28161079f565b81146107fd57600080fd5b50565b60008135905061080f816107e9565b92915050565b60006020828403121561082b5761082a61066a565b5b600061083984828501610800565b91505092915050565b7f4e487b7100000000000000000000000000000000000000000000000000000000600052603260045260246000fd5b6000813561087e81610726565b80915050919050565b60008160001b9050919050565b60007fffffffffffffffffffffffffffffffffffffffffffffffffffffffffffffffff6108c084610887565b9350801983169250808416831791505092915050565b6000819050919050565b60006108fb6108f66108f184610636565b6108d6565b610636565b9050919050565b6000819050919050565b610915826108e0565b61092861092182610902565b8354610894565b8255505050565b6000813561093c816107e9565b80915050919050565b600073ffffffffffffffffffffffffffffffffffffffff61096584610887565b9350801983169250808416831791505092915050565b600061099661099161098c8461077f565b6108d6565b61077f565b9050919050565b60006109a88261097b565b9050919050565b60006109ba8261099d565b9050919050565b6000819050919050565b6109d4826109af565b6109e76109e0826109c1565b8354610945565b8255505050565b600081016000830180610a0081610871565b9050610a0c818461090c565b505050600181016020830180610a218161092f565b9050610a2d81846109cb565b5050505050565b610a3e82826109ee565b5050565b7f4e487b7100000000000000000000000000000000000000000000000000000000600052601160045260246000fd5b6000610a7c82610636565b9150610a8783610636565b9250828201905080821115610a9f57610a9e610a42565b5b92915050565b6000610ab082610636565b91507fffffffffffffffffffffffffffffffffffffffffffffffffffffffffffffffff8203610ae257610ae1610a42565b5b600182019050919050565b6000602082019050610b0260008301846107b1565b92915050565b600081519050610b1781610726565b92915050565b600060208284031215610b3357610b3261066a565b5b6000610b4184828501610b08565b91505092915050565b6000610b5582610636565b9150610b6083610636565b9250828202610b6e81610636565b91508282048414831517610b8557610b84610a42565b5b5092915050565b7f4e487b7100000000000000000000000000000000000000000000000000000000600052601260045260246000fd5b6000610bc682610636565b9150610bd183610636565b925082610be157610be0610b8c565b5b828204905092915050565b6000604082019050610c0160008301856107b1565b610c0e6020830184610640565b9392505050565b60008115159050919050565b610c2a81610c15565b8114610c3557600080fd5b50565b600081519050610c4781610c21565b92915050565b600060208284031215610c6357610c6261066a565b5b6000610c7184828501610c38565b91505092915050565b600081519050919050565b600081905092915050565b60005b83811015610cae578082015181840152602081019050610c93565b60008484015250505050565b6000610cc582610c7a565b610ccf8185610c85565b9350610cdf818560208601610c90565b80840191505092915050565b6000610cf78284610cba565b915081905092915050565b6000610d0d82610636565b9150610d1883610636565b9250828203905081811115610d3057610d2f610a42565b5b9291505056fea2646970667358221220ca89f37b5201feae8e81cddb87c90f16424f659095465d45e0d67f7072e94fc464736f6c63430008110033",
  "linkReferences": {},
  "deployedLinkReferences": {}
}