{"contracts/Valve.sol":{"Valve":{"abi":[{"inputs":[{"internalType":"address","name":"_token","type":"address"}],"name":"Split","outputs":[],"stateMutability":"nonpayable","type":"function"},{"inputs":[],"name":"lastGasLeft","outputs":[{"internalType":"uint256","name":"","type":"uint256"}],"stateMutability":"view","type":"function"},{"inputs":[{"internalType":"uint256","name":"","type":"uint256"}],"name":"percents","outputs":[{"internalType":"uint256","name":"percent","type":"uint256"},{"internalType":"address","name":"addr","type":"address"}],"stateMutability":"view","type":"function"},{"inputs":[{"components":[{"internalType":"uint256","name":"percent","type":"uint256"},{"internalType":"address","name":"addr","type":"address"}],"internalType":"struct Book.Percent[]","name":"_percents","type":"tuple[]"}],"name":"setPercents","outputs":[],"stateMutability":"nonpayable","type":"function"},{"inputs":[],"name":"sumPercent","outputs":[{"internalType":"uint256","name":"","type":"uint256"}],"stateMutability":"view","type":"function"},{"inputs":[],"name":"width","outputs":[{"internalType":"uint256","name":"","type":"uint256"}],"stateMutability":"view","type":"function"}],"evm":{"bytecode":{"linkReferences":{},"object":"6080604052600080556000600355600060045534801561001e57600080fd5b50610d6c8061002e6000396000f3fe608060405234801561001057600080fd5b50600436106100625760003560e01c80631a32b41a1461006757806327ffd3cd1461008557806349e5b9b3146100a15780638db1342d146100bf5780639ededf77146100f0578063d54a497a1461010e575b600080fd5b61006f61012a565b60405161007c919061064f565b60405180910390f35b61009f600480360381019061009a91906106d9565b610130565b005b6100a96101fd565b6040516100b6919061064f565b60405180910390f35b6100d960048036038101906100d49190610752565b610203565b6040516100e79291906107c0565b60405180910390f35b6100f8610257565b604051610105919061064f565b60405180910390f35b61012860048036038101906101239190610815565b61025d565b005b60015481565b6002600061013e91906105cc565b600060018190555060005b828290508110156101ee57600283838381811061016957610168610842565b5b905060400201908060018154018082558091505060019003906000526020600020906002020160009091909190915081816101a49190610a34565b50508282828181106101b9576101b8610842565b5b90506040020160000135600160008282546101d49190610a71565b9250508190555080806101e690610aa5565b915050610149565b50818190506000819055505050565b60035481565b6002818154811061021357600080fd5b90600052602060002090600202016000915090508060000154908060010160009054906101000a900473ffffffffffffffffffffffffffffffffffffffff16905082565b60045481565b60005a90506000805411156105c857600060048190555060008273ffffffffffffffffffffffffffffffffffffffff166370a08231306040518263ffffffff1660e01b81526004016102af9190610aed565b602060405180830381865afa1580156102cc573d6000803e3d6000fd5b505050506040513d601f19601f820116820180604052508101906102f09190610b1d565b905060005b600054811015610413578373ffffffffffffffffffffffffffffffffffffffff1663a9059cbb6002838154811061032f5761032e610842565b5b906000526020600020906002020160010160009054906101000a900473ffffffffffffffffffffffffffffffffffffffff166001546002858154811061037857610377610842565b5b906000526020600020906002020160000154866103959190610b4a565b61039f9190610bbb565b6040518363ffffffff1660e01b81526004016103bc929190610bec565b6020604051808303816000875af11580156103db573d6000803e3d6000fd5b505050506040513d601f19601f820116820180604052508101906103ff9190610c4d565b50808061040b90610aa5565b9150506102f5565b506000805460025a6104259190610bbb565b61042f9190610bbb565b905060005b6000548110156105b25760006002828154811061045457610453610842565b5b906000526020600020906002020160010160009054906101000a900473ffffffffffffffffffffffffffffffffffffffff1673ffffffffffffffffffffffffffffffffffffffff1683876040516024016104ae9190610aed565b6040516020818303038152906040527fd54a497a000000000000000000000000000000000000000000000000000000007bffffffffffffffffffffffffffffffffffffffffffffffffffffffff19166020820180517bffffffffffffffffffffffffffffffffffffffffffffffffffffffff83818316178352505050506040516105389190610ceb565b60006040518083038160008787f1925050503d8060008114610576576040519150601f19603f3d011682016040523d82523d6000602084013e61057b565b606091505b50509050801561059e576004600081548092919061059890610aa5565b91905055505b5080806105aa90610aa5565b915050610434565b505a836105bf9190610d02565b60038190555050505b5050565b50805460008255600202906000526020600020908101906105ed91906105f0565b50565b5b80821115610632576000808201600090556001820160006101000a81549073ffffffffffffffffffffffffffffffffffffffff0219169055506002016105f1565b5090565b6000819050919050565b61064981610636565b82525050565b60006020820190506106646000830184610640565b92915050565b600080fd5b600080fd5b600080fd5b600080fd5b600080fd5b60008083601f84011261069957610698610674565b5b8235905067ffffffffffffffff8111156106b6576106b5610679565b5b6020830191508360408202830111156106d2576106d161067e565b5b9250929050565b600080602083850312156106f0576106ef61066a565b5b600083013567ffffffffffffffff81111561070e5761070d61066f565b5b61071a85828601610683565b92509250509250929050565b61072f81610636565b811461073a57600080fd5b50565b60008135905061074c81610726565b92915050565b6000602082840312156107685761076761066a565b5b60006107768482850161073d565b91505092915050565b600073ffffffffffffffffffffffffffffffffffffffff82169050919050565b60006107aa8261077f565b9050919050565b6107ba8161079f565b82525050565b60006040820190506107d56000830185610640565b6107e260208301846107b1565b9392505050565b6107f28161079f565b81146107fd57600080fd5b50565b60008135905061080f816107e9565b92915050565b60006020828403121561082b5761082a61066a565b5b600061083984828501610800565b91505092915050565b7f4e487b7100000000000000000000000000000000000000000000000000000000600052603260045260246000fd5b6000813561087e81610726565b80915050919050565b60008160001b9050919050565b60007fffffffffffffffffffffffffffffffffffffffffffffffffffffffffffffffff6108c084610887565b9350801983169250808416831791505092915050565b6000819050919050565b60006108fb6108f66108f184610636565b6108d6565b610636565b9050919050565b6000819050919050565b610915826108e0565b61092861092182610902565b8354610894565b8255505050565b6000813561093c816107e9565b80915050919050565b600073ffffffffffffffffffffffffffffffffffffffff61096584610887565b9350801983169250808416831791505092915050565b600061099661099161098c8461077f565b6108d6565b61077f565b9050919050565b60006109a88261097b565b9050919050565b60006109ba8261099d565b9050919050565b6000819050919050565b6109d4826109af565b6109e76109e0826109c1565b8354610945565b8255505050565b600081016000830180610a0081610871565b9050610a0c818461090c565b505050600181016020830180610a218161092f565b9050610a2d81846109cb565b5050505050565b610a3e82826109ee565b5050565b7f4e487b7100000000000000000000000000000000000000000000000000000000600052601160045260246000fd5b6000610a7c82610636565b9150610a8783610636565b9250828201905080821115610a9f57610a9e610a42565b5b92915050565b6000610ab082610636565b91507fffffffffffffffffffffffffffffffffffffffffffffffffffffffffffffffff8203610ae257610ae1610a42565b5b600182019050919050565b6000602082019050610b0260008301846107b1565b92915050565b600081519050610b1781610726565b92915050565b600060208284031215610b3357610b3261066a565b5b6000610b4184828501610b08565b91505092915050565b6000610b5582610636565b9150610b6083610636565b9250828202610b6e81610636565b91508282048414831517610b8557610b84610a42565b5b5092915050565b7f4e487b7100000000000000000000000000000000000000000000000000000000600052601260045260246000fd5b6000610bc682610636565b9150610bd183610636565b925082610be157610be0610b8c565b5b828204905092915050565b6000604082019050610c0160008301856107b1565b610c0e6020830184610640565b9392505050565b60008115159050919050565b610c2a81610c15565b8114610c3557600080fd5b50565b600081519050610c4781610c21565b92915050565b600060208284031215610c6357610c6261066a565b5b6000610c7184828501610c38565b91505092915050565b600081519050919050565b600081905092915050565b60005b83811015610cae578082015181840152602081019050610c93565b60008484015250505050565b6000610cc582610c7a565b610ccf8185610c85565b9350610cdf818560208601610c90565b80840191505092915050565b6000610cf78284610cba565b915081905092915050565b6000610d0d82610636565b9150610d1883610636565b9250828203905081811115610d3057610d2f610a42565b5b9291505056fea2646970667358221220ca89f37b5201feae8e81cddb87c90f16424f659095465d45e0d67f7072e94fc464736f6c63430008110033","opcodes":"PUSH1 0x80 PUSH1 0x40 MSTORE PUSH1 0x0 DUP1 SSTORE PUSH1 0x0 PUSH1 0x3 SSTORE PUSH1 0x0 PUSH1 0x4 SSTORE CALLVALUE DUP1 ISZERO PUSH2 0x1E JUMPI PUSH1 0x0 DUP1 REVERT JUMPDEST POP PUSH2 0xD6C DUP1 PUSH2 0x2E PUSH1 0x0 CODECOPY PUSH1 0x0 RETURN INVALID PUSH1 0x80 PUSH1 0x40 MSTORE CALLVALUE DUP1 ISZERO PUSH2 0x10 JUMPI PUSH1 0x0 DUP1 REVERT JUMPDEST POP PUSH1 0x4 CALLDATASIZE LT PUSH2 0x62 JUMPI PUSH1 0x0 CALLDATALOAD PUSH1 0xE0 SHR DUP1 PUSH4 0x1A32B41A EQ PUSH2 0x67 JUMPI DUP1 PUSH4 0x27FFD3CD EQ PUSH2 0x85 JUMPI DUP1 PUSH4 0x49E5B9B3 EQ PUSH2 0xA1 JUMPI DUP1 PUSH4 0x8DB1342D EQ PUSH2 0xBF JUMPI DUP1 PUSH4 0x9EDEDF77 EQ PUSH2 0xF0 JUMPI DUP1 PUSH4 0xD54A497A EQ PUSH2 0x10E JUMPI JUMPDEST PUSH1 0x0 DUP1 REVERT JUMPDEST PUSH2 0x6F PUSH2 0x12A JUMP JUMPDEST PUSH1 0x40 MLOAD PUSH2 0x7C SWAP2 SWAP1 PUSH2 0x64F JUMP JUMPDEST PUSH1 0x40 MLOAD DUP1 SWAP2 SUB SWAP1 RETURN JUMPDEST PUSH2 0x9F PUSH1 0x4 DUP1 CALLDATASIZE SUB DUP2 ADD SWAP1 PUSH2 0x9A SWAP2 SWAP1 PUSH2 0x6D9 JUMP JUMPDEST PUSH2 0x130 JUMP JUMPDEST STOP JUMPDEST PUSH2 0xA9 PUSH2 0x1FD JUMP JUMPDEST PUSH1 0x40 MLOAD PUSH2 0xB6 SWAP2 SWAP1 PUSH2 0x64F JUMP JUMPDEST PUSH1 0x40 MLOAD DUP1 SWAP2 SUB SWAP1 RETURN JUMPDEST PUSH2 0xD9 PUSH1 0x4 DUP1 CALLDATASIZE SUB DUP2 ADD SWAP1 PUSH2 0xD4 SWAP2 SWAP1 PUSH2 0x752 JUMP JUMPDEST PUSH2 0x203 JUMP JUMPDEST PUSH1 0x40 MLOAD PUSH2 0xE7 SWAP3 SWAP2 SWAP1 PUSH2 0x7C0 JUMP JUMPDEST PUSH1 0x40 MLOAD DUP1 SWAP2 SUB SWAP1 RETURN JUMPDEST PUSH2 0xF8 PUSH2 0x257 JUMP JUMPDEST PUSH1 0x40 MLOAD PUSH2 0x105 SWAP2 SWAP1 PUSH2 0x64F JUMP JUMPDEST PUSH1 0x40 MLOAD DUP1 SWAP2 SUB SWAP1 RETURN JUMPDEST PUSH2 0x128 PUSH1 0x4 DUP1 CALLDATASIZE SUB DUP2 ADD SWAP1 PUSH2 0x123 SWAP2 SWAP1 PUSH2 0x815 JUMP JUMPDEST PUSH2 0x25D JUMP JUMPDEST STOP JUMPDEST PUSH1 0x1 SLOAD DUP2 JUMP JUMPDEST PUSH1 0x2 PUSH1 0x0 PUSH2 0x13E SWAP2 SWAP1 PUSH2 0x5CC JUMP JUMPDEST PUSH1 0x0 PUSH1 0x1 DUP2 SWAP1 SSTORE POP PUSH1 0x0 JUMPDEST DUP3 DUP3 SWAP1 POP DUP2 LT ISZERO PUSH2 0x1EE JUMPI PUSH1 0x2 DUP4 DUP4 DUP4 DUP2 DUP2 LT PUSH2 0x169 JUMPI PUSH2 0x168 PUSH2 0x842 JUMP JUMPDEST JUMPDEST SWAP1 POP PUSH1 0x40 MUL ADD SWAP1 DUP1 PUSH1 0x1 DUP2 SLOAD ADD DUP1 DUP3 SSTORE DUP1 SWAP2 POP POP PUSH1 0x1 SWAP1 SUB SWAP1 PUSH1 0x0 MSTORE PUSH1 0x20 PUSH1 0x0 KECCAK256 SWAP1 PUSH1 0x2 MUL ADD PUSH1 0x0 SWAP1 SWAP2 SWAP1 SWAP2 SWAP1 SWAP2 POP DUP2 DUP2 PUSH2 0x1A4 SWAP2 SWAP1 PUSH2 0xA34 JUMP JUMPDEST POP POP DUP3 DUP3 DUP3 DUP2 DUP2 LT PUSH2 0x1B9 JUMPI PUSH2 0x1B8 PUSH2 0x842 JUMP JUMPDEST JUMPDEST SWAP1 POP PUSH1 0x40 MUL ADD PUSH1 0x0 ADD CALLDATALOAD PUSH1 0x1 PUSH1 0x0 DUP3 DUP3 SLOAD PUSH2 0x1D4 SWAP2 SWAP1 PUSH2 0xA71 JUMP JUMPDEST SWAP3 POP POP DUP2 SWAP1 SSTORE POP DUP1 DUP1 PUSH2 0x1E6 SWAP1 PUSH2 0xAA5 JUMP JUMPDEST SWAP2 POP POP PUSH2 0x149 JUMP JUMPDEST POP DUP2 DUP2 SWAP1 POP PUSH1 0x0 DUP2 SWAP1 SSTORE POP POP POP JUMP JUMPDEST PUSH1 0x3 SLOAD DUP2 JUMP JUMPDEST PUSH1 0x2 DUP2 DUP2 SLOAD DUP2 LT PUSH2 0x213 JUMPI PUSH1 0x0 DUP1 REVERT JUMPDEST SWAP1 PUSH1 0x0 MSTORE PUSH1 0x20 PUSH1 0x0 KECCAK256 SWAP1 PUSH1 0x2 MUL ADD PUSH1 0x0 SWAP2 POP SWAP1 POP DUP1 PUSH1 0x0 ADD SLOAD SWAP1 DUP1 PUSH1 0x1 ADD PUSH1 0x0 SWAP1 SLOAD SWAP1 PUSH2 0x100 EXP SWAP1 DIV PUSH20 0xFFFFFFFFFFFFFFFFFFFFFFFFFFFFFFFFFFFFFFFF AND SWAP1 POP DUP3 JUMP JUMPDEST PUSH1 0x4 SLOAD DUP2 JUMP JUMPDEST PUSH1 0x0 GAS SWAP1 POP PUSH1 0x0 DUP1 SLOAD GT ISZERO PUSH2 0x5C8 JUMPI PUSH1 0x0 PUSH1 0x4 DUP2 SWAP1 SSTORE POP PUSH1 0x0 DUP3 PUSH20 0xFFFFFFFFFFFFFFFFFFFFFFFFFFFFFFFFFFFFFFFF AND PUSH4 0x70A08231 ADDRESS PUSH1 0x40 MLOAD DUP3 PUSH4 0xFFFFFFFF AND PUSH1 0xE0 SHL DUP2 MSTORE PUSH1 0x4 ADD PUSH2 0x2AF SWAP2 SWAP1 PUSH2 0xAED JUMP JUMPDEST PUSH1 0x20 PUSH1 0x40 MLOAD DUP1 DUP4 SUB DUP2 DUP7 GAS STATICCALL ISZERO DUP1 ISZERO PUSH2 0x2CC JUMPI RETURNDATASIZE PUSH1 0x0 DUP1 RETURNDATACOPY RETURNDATASIZE PUSH1 0x0 REVERT JUMPDEST POP POP POP POP PUSH1 0x40 MLOAD RETURNDATASIZE PUSH1 0x1F NOT PUSH1 0x1F DUP3 ADD AND DUP3 ADD DUP1 PUSH1 0x40 MSTORE POP DUP2 ADD SWAP1 PUSH2 0x2F0 SWAP2 SWAP1 PUSH2 0xB1D JUMP JUMPDEST SWAP1 POP PUSH1 0x0 JUMPDEST PUSH1 0x0 SLOAD DUP2 LT ISZERO PUSH2 0x413 JUMPI DUP4 PUSH20 0xFFFFFFFFFFFFFFFFFFFFFFFFFFFFFFFFFFFFFFFF AND PUSH4 0xA9059CBB PUSH1 0x2 DUP4 DUP2 SLOAD DUP2 LT PUSH2 0x32F JUMPI PUSH2 0x32E PUSH2 0x842 JUMP JUMPDEST JUMPDEST SWAP1 PUSH1 0x0 MSTORE PUSH1 0x20 PUSH1 0x0 KECCAK256 SWAP1 PUSH1 0x2 MUL ADD PUSH1 0x1 ADD PUSH1 0x0 SWAP1 SLOAD SWAP1 PUSH2 0x100 EXP SWAP1 DIV PUSH20 0xFFFFFFFFFFFFFFFFFFFFFFFFFFFFFFFFFFFFFFFF AND PUSH1 0x1 SLOAD PUSH1 0x2 DUP6 DUP2 SLOAD DUP2 LT PUSH2 0x378 JUMPI PUSH2 0x377 PUSH2 0x842 JUMP JUMPDEST JUMPDEST SWAP1 PUSH1 0x0 MSTORE PUSH1 0x20 PUSH1 0x0 KECCAK256 SWAP1 PUSH1 0x2 MUL ADD PUSH1 0x0 ADD SLOAD DUP7 PUSH2 0x395 SWAP2 SWAP1 PUSH2 0xB4A JUMP JUMPDEST PUSH2 0x39F SWAP2 SWAP1 PUSH2 0xBBB JUMP JUMPDEST PUSH1 0x40 MLOAD DUP4 PUSH4 0xFFFFFFFF AND PUSH1 0xE0 SHL DUP2 MSTORE PUSH1 0x4 ADD PUSH2 0x3BC SWAP3 SWAP2 SWAP1 PUSH2 0xBEC JUMP JUMPDEST PUSH1 0x20 PUSH1 0x40 MLOAD DUP1 DUP4 SUB DUP2 PUSH1 0x0 DUP8 GAS CALL ISZERO DUP1 ISZERO PUSH2 0x3DB JUMPI RETURNDATASIZE PUSH1 0x0 DUP1 RETURNDATACOPY RETURNDATASIZE PUSH1 0x0 REVERT JUMPDEST POP POP POP POP PUSH1 0x40 MLOAD RETURNDATASIZE PUSH1 0x1F NOT PUSH1 0x1F DUP3 ADD AND DUP3 ADD DUP1 PUSH1 0x40 MSTORE POP DUP2 ADD SWAP1 PUSH2 0x3FF SWAP2 SWAP1 PUSH2 0xC4D JUMP JUMPDEST POP DUP1 DUP1 PUSH2 0x40B SWAP1 PUSH2 0xAA5 JUMP JUMPDEST SWAP2 POP POP PUSH2 0x2F5 JUMP JUMPDEST POP PUSH1 0x0 DUP1 SLOAD PUSH1 0x2 GAS PUSH2 0x425 SWAP2 SWAP1 PUSH2 0xBBB JUMP JUMPDEST PUSH2 0x42F SWAP2 SWAP1 PUSH2 0xBBB JUMP JUMPDEST SWAP1 POP PUSH1 0x0 JUMPDEST PUSH1 0x0 SLOAD DUP2 LT ISZERO PUSH2 0x5B2 JUMPI PUSH1 0x0 PUSH1 0x2 DUP3 DUP2 SLOAD DUP2 LT PUSH2 0x454 JUMPI PUSH2 0x453 PUSH2 0x842 JUMP JUMPDEST JUMPDEST SWAP1 PUSH1 0x0 MSTORE PUSH1 0x20 PUSH1 0x0 KECCAK256 SWAP1 PUSH1 0x2 MUL ADD PUSH1 0x1 ADD PUSH1 0x0 SWAP1 SLOAD SWAP1 PUSH2 0x100 EXP SWAP1 DIV PUSH20 0xFFFFFFFFFFFFFFFFFFFFFFFFFFFFFFFFFFFFFFFF AND PUSH20 0xFFFFFFFFFFFFFFFFFFFFFFFFFFFFFFFFFFFFFFFF AND DUP4 DUP8 PUSH1 0x40 MLOAD PUSH1 0x24 ADD PUSH2 0x4AE SWAP2 SWAP1 PUSH2 0xAED JUMP JUMPDEST PUSH1 0x40 MLOAD PUSH1 0x20 DUP2 DUP4 SUB SUB DUP2 MSTORE SWAP1 PUSH1 0x40 MSTORE PUSH32 0xD54A497A00000000000000000000000000000000000000000000000000000000 PUSH28 0xFFFFFFFFFFFFFFFFFFFFFFFFFFFFFFFFFFFFFFFFFFFFFFFFFFFFFFFF NOT AND PUSH1 0x20 DUP3 ADD DUP1 MLOAD PUSH28 0xFFFFFFFFFFFFFFFFFFFFFFFFFFFFFFFFFFFFFFFFFFFFFFFFFFFFFFFF DUP4 DUP2 DUP4 AND OR DUP4 MSTORE POP POP POP POP PUSH1 0x40 MLOAD PUSH2 0x538 SWAP2 SWAP1 PUSH2 0xCEB JUMP JUMPDEST PUSH1 0x0 PUSH1 0x40 MLOAD DUP1 DUP4 SUB DUP2 PUSH1 0x0 DUP8 DUP8 CALL SWAP3 POP POP POP RETURNDATASIZE DUP1 PUSH1 0x0 DUP2 EQ PUSH2 0x576 JUMPI PUSH1 0x40 MLOAD SWAP2 POP PUSH1 0x1F NOT PUSH1 0x3F RETURNDATASIZE ADD AND DUP3 ADD PUSH1 0x40 MSTORE RETURNDATASIZE DUP3 MSTORE RETURNDATASIZE PUSH1 0x0 PUSH1 0x20 DUP5 ADD RETURNDATACOPY PUSH2 0x57B JUMP JUMPDEST PUSH1 0x60 SWAP2 POP JUMPDEST POP POP SWAP1 POP DUP1 ISZERO PUSH2 0x59E JUMPI PUSH1 0x4 PUSH1 0x0 DUP2 SLOAD DUP1 SWAP3 SWAP2 SWAP1 PUSH2 0x598 SWAP1 PUSH2 0xAA5 JUMP JUMPDEST SWAP2 SWAP1 POP SSTORE POP JUMPDEST POP DUP1 DUP1 PUSH2 0x5AA SWAP1 PUSH2 0xAA5 JUMP JUMPDEST SWAP2 POP POP PUSH2 0x434 JUMP JUMPDEST POP GAS DUP4 PUSH2 0x5BF SWAP2 SWAP1 PUSH2 0xD02 JUMP JUMPDEST PUSH1 0x3 DUP2 SWAP1 SSTORE POP POP POP JUMPDEST POP POP JUMP JUMPDEST POP DUP1 SLOAD PUSH1 0x0 DUP3 SSTORE PUSH1 0x2 MUL SWAP1 PUSH1 0x0 MSTORE PUSH1 0x20 PUSH1 0x0 KECCAK256 SWAP1 DUP2 ADD SWAP1 PUSH2 0x5ED SWAP2 SWAP1 PUSH2 0x5F0 JUMP JUMPDEST POP JUMP JUMPDEST JUMPDEST DUP1 DUP3 GT ISZERO PUSH2 0x632 JUMPI PUSH1 0x0 DUP1 DUP3 ADD PUSH1 0x0 SWAP1 SSTORE PUSH1 0x1 DUP3 ADD PUSH1 0x0 PUSH2 0x100 EXP DUP2 SLOAD SWAP1 PUSH20 0xFFFFFFFFFFFFFFFFFFFFFFFFFFFFFFFFFFFFFFFF MUL NOT AND SWAP1 SSTORE POP PUSH1 0x2 ADD PUSH2 0x5F1 JUMP JUMPDEST POP SWAP1 JUMP JUMPDEST PUSH1 0x0 DUP2 SWAP1 POP SWAP2 SWAP1 POP JUMP JUMPDEST PUSH2 0x649 DUP2 PUSH2 0x636 JUMP JUMPDEST DUP3 MSTORE POP POP JUMP JUMPDEST PUSH1 0x0 PUSH1 0x20 DUP3 ADD SWAP1 POP PUSH2 0x664 PUSH1 0x0 DUP4 ADD DUP5 PUSH2 0x640 JUMP JUMPDEST SWAP3 SWAP2 POP POP JUMP JUMPDEST PUSH1 0x0 DUP1 REVERT JUMPDEST PUSH1 0x0 DUP1 REVERT JUMPDEST PUSH1 0x0 DUP1 REVERT JUMPDEST PUSH1 0x0 DUP1 REVERT JUMPDEST PUSH1 0x0 DUP1 REVERT JUMPDEST PUSH1 0x0 DUP1 DUP4 PUSH1 0x1F DUP5 ADD SLT PUSH2 0x699 JUMPI PUSH2 0x698 PUSH2 0x674 JUMP JUMPDEST JUMPDEST DUP3 CALLDATALOAD SWAP1 POP PUSH8 0xFFFFFFFFFFFFFFFF DUP2 GT ISZERO PUSH2 0x6B6 JUMPI PUSH2 0x6B5 PUSH2 0x679 JUMP JUMPDEST JUMPDEST PUSH1 0x20 DUP4 ADD SWAP2 POP DUP4 PUSH1 0x40 DUP3 MUL DUP4 ADD GT ISZERO PUSH2 0x6D2 JUMPI PUSH2 0x6D1 PUSH2 0x67E JUMP JUMPDEST JUMPDEST SWAP3 POP SWAP3 SWAP1 POP JUMP JUMPDEST PUSH1 0x0 DUP1 PUSH1 0x20 DUP4 DUP6 SUB SLT ISZERO PUSH2 0x6F0 JUMPI PUSH2 0x6EF PUSH2 0x66A JUMP JUMPDEST JUMPDEST PUSH1 0x0 DUP4 ADD CALLDATALOAD PUSH8 0xFFFFFFFFFFFFFFFF DUP2 GT ISZERO PUSH2 0x70E JUMPI PUSH2 0x70D PUSH2 0x66F JUMP JUMPDEST JUMPDEST PUSH2 0x71A DUP6 DUP3 DUP7 ADD PUSH2 0x683 JUMP JUMPDEST SWAP3 POP SWAP3 POP POP SWAP3 POP SWAP3 SWAP1 POP JUMP JUMPDEST PUSH2 0x72F DUP2 PUSH2 0x636 JUMP JUMPDEST DUP2 EQ PUSH2 0x73A JUMPI PUSH1 0x0 DUP1 REVERT JUMPDEST POP JUMP JUMPDEST PUSH1 0x0 DUP2 CALLDATALOAD SWAP1 POP PUSH2 0x74C DUP2 PUSH2 0x726 JUMP JUMPDEST SWAP3 SWAP2 POP POP JUMP JUMPDEST PUSH1 0x0 PUSH1 0x20 DUP3 DUP5 SUB SLT ISZERO PUSH2 0x768 JUMPI PUSH2 0x767 PUSH2 0x66A JUMP JUMPDEST JUMPDEST PUSH1 0x0 PUSH2 0x776 DUP5 DUP3 DUP6 ADD PUSH2 0x73D JUMP JUMPDEST SWAP2 POP POP SWAP3 SWAP2 POP POP JUMP JUMPDEST PUSH1 0x0 PUSH20 0xFFFFFFFFFFFFFFFFFFFFFFFFFFFFFFFFFFFFFFFF DUP3 AND SWAP1 POP SWAP2 SWAP1 POP JUMP JUMPDEST PUSH1 0x0 PUSH2 0x7AA DUP3 PUSH2 0x77F JUMP JUMPDEST SWAP1 POP SWAP2 SWAP1 POP JUMP JUMPDEST PUSH2 0x7BA DUP2 PUSH2 0x79F JUMP JUMPDEST DUP3 MSTORE POP POP JUMP JUMPDEST PUSH1 0x0 PUSH1 0x40 DUP3 ADD SWAP1 POP PUSH2 0x7D5 PUSH1 0x0 DUP4 ADD DUP6 PUSH2 0x640 JUMP JUMPDEST PUSH2 0x7E2 PUSH1 0x20 DUP4 ADD DUP5 PUSH2 0x7B1 JUMP JUMPDEST SWAP4 SWAP3 POP POP POP JUMP JUMPDEST PUSH2 0x7F2 DUP2 PUSH2 0x79F JUMP JUMPDEST DUP2 EQ PUSH2 0x7FD JUMPI PUSH1 0x0 DUP1 REVERT JUMPDEST POP JUMP JUMPDEST PUSH1 0x0 DUP2 CALLDATALOAD SWAP1 POP PUSH2 0x80F DUP2 PUSH2 0x7E9 JUMP JUMPDEST SWAP3 SWAP2 POP POP JUMP JUMPDEST PUSH1 0x0 PUSH1 0x20 DUP3 DUP5 SUB SLT ISZERO PUSH2 0x82B JUMPI PUSH2 0x82A PUSH2 0x66A JUMP JUMPDEST JUMPDEST PUSH1 0x0 PUSH2 0x839 DUP5 DUP3 DUP6 ADD PUSH2 0x800 JUMP JUMPDEST SWAP2 POP POP SWAP3 SWAP2 POP POP JUMP JUMPDEST PUSH32 0x4E487B7100000000000000000000000000000000000000000000000000000000 PUSH1 0x0 MSTORE PUSH1 0x32 PUSH1 0x4 MSTORE PUSH1 0x24 PUSH1 0x0 REVERT JUMPDEST PUSH1 0x0 DUP2 CALLDATALOAD PUSH2 0x87E DUP2 PUSH2 0x726 JUMP JUMPDEST DUP1 SWAP2 POP POP SWAP2 SWAP1 POP JUMP JUMPDEST PUSH1 0x0 DUP2 PUSH1 0x0 SHL SWAP1 POP SWAP2 SWAP1 POP JUMP JUMPDEST PUSH1 0x0 PUSH32 0xFFFFFFFFFFFFFFFFFFFFFFFFFFFFFFFFFFFFFFFFFFFFFFFFFFFFFFFFFFFFFFFF PUSH2 0x8C0 DUP5 PUSH2 0x887 JUMP JUMPDEST SWAP4 POP DUP1 NOT DUP4 AND SWAP3 POP DUP1 DUP5 AND DUP4 OR SWAP2 POP POP SWAP3 SWAP2 POP POP JUMP JUMPDEST PUSH1 0x0 DUP2 SWAP1 POP SWAP2 SWAP1 POP JUMP JUMPDEST PUSH1 0x0 PUSH2 0x8FB PUSH2 0x8F6 PUSH2 0x8F1 DUP5 PUSH2 0x636 JUMP JUMPDEST PUSH2 0x8D6 JUMP JUMPDEST PUSH2 0x636 JUMP JUMPDEST SWAP1 POP SWAP2 SWAP1 POP JUMP JUMPDEST PUSH1 0x0 DUP2 SWAP1 POP SWAP2 SWAP1 POP JUMP JUMPDEST PUSH2 0x915 DUP3 PUSH2 0x8E0 JUMP JUMPDEST PUSH2 0x928 PUSH2 0x921 DUP3 PUSH2 0x902 JUMP JUMPDEST DUP4 SLOAD PUSH2 0x894 JUMP JUMPDEST DUP3 SSTORE POP POP POP JUMP JUMPDEST PUSH1 0x0 DUP2 CALLDATALOAD PUSH2 0x93C DUP2 PUSH2 0x7E9 JUMP JUMPDEST DUP1 SWAP2 POP POP SWAP2 SWAP1 POP JUMP JUMPDEST PUSH1 0x0 PUSH20 0xFFFFFFFFFFFFFFFFFFFFFFFFFFFFFFFFFFFFFFFF PUSH2 0x965 DUP5 PUSH2 0x887 JUMP JUMPDEST SWAP4 POP DUP1 NOT DUP4 AND SWAP3 POP DUP1 DUP5 AND DUP4 OR SWAP2 POP POP SWAP3 SWAP2 POP POP JUMP JUMPDEST PUSH1 0x0 PUSH2 0x996 PUSH2 0x991 PUSH2 0x98C DUP5 PUSH2 0x77F JUMP JUMPDEST PUSH2 0x8D6 JUMP JUMPDEST PUSH2 0x77F JUMP JUMPDEST SWAP1 POP SWAP2 SWAP1 POP JUMP JUMPDEST PUSH1 0x0 PUSH2 0x9A8 DUP3 PUSH2 0x97B JUMP JUMPDEST SWAP1 POP SWAP2 SWAP1 POP JUMP JUMPDEST PUSH1 0x0 PUSH2 0x9BA DUP3 PUSH2 0x99D JUMP JUMPDEST SWAP1 POP SWAP2 SWAP1 POP JUMP JUMPDEST PUSH1 0x0 DUP2 SWAP1 POP SWAP2 SWAP1 POP JUMP JUMPDEST PUSH2 0x9D4 DUP3 PUSH2 0x9AF JUMP JUMPDEST PUSH2 0x9E7 PUSH2 0x9E0 DUP3 PUSH2 0x9C1 JUMP JUMPDEST DUP4 SLOAD PUSH2 0x945 JUMP JUMPDEST DUP3 SSTORE POP POP POP JUMP JUMPDEST PUSH1 0x0 DUP2 ADD PUSH1 0x0 DUP4 ADD DUP1 PUSH2 0xA00 DUP2 PUSH2 0x871 JUMP JUMPDEST SWAP1 POP PUSH2 0xA0C DUP2 DUP5 PUSH2 0x90C JUMP JUMPDEST POP POP POP PUSH1 0x1 DUP2 ADD PUSH1 0x20 DUP4 ADD DUP1 PUSH2 0xA21 DUP2 PUSH2 0x92F JUMP JUMPDEST SWAP1 POP PUSH2 0xA2D DUP2 DUP5 PUSH2 0x9CB JUMP JUMPDEST POP POP POP POP POP JUMP JUMPDEST PUSH2 0xA3E DUP3 DUP3 PUSH2 0x9EE JUMP JUMPDEST POP POP JUMP JUMPDEST PUSH32 0x4E487B7100000000000000000000000000000000000000000000000000000000 PUSH1 0x0 MSTORE PUSH1 0x11 PUSH1 0x4 MSTORE PUSH1 0x24 PUSH1 0x0 REVERT JUMPDEST PUSH1 0x0 PUSH2 0xA7C DUP3 PUSH2 0x636 JUMP JUMPDEST SWAP2 POP PUSH2 0xA87 DUP4 PUSH2 0x636 JUMP JUMPDEST SWAP3 POP DUP3 DUP3 ADD SWAP1 POP DUP1 DUP3 GT ISZERO PUSH2 0xA9F JUMPI PUSH2 0xA9E PUSH2 0xA42 JUMP JUMPDEST JUMPDEST SWAP3 SWAP2 POP POP JUMP JUMPDEST PUSH1 0x0 PUSH2 0xAB0 DUP3 PUSH2 0x636 JUMP JUMPDEST SWAP2 POP PUSH32 0xFFFFFFFFFFFFFFFFFFFFFFFFFFFFFFFFFFFFFFFFFFFFFFFFFFFFFFFFFFFFFFFF DUP3 SUB PUSH2 0xAE2 JUMPI PUSH2 0xAE1 PUSH2 0xA42 JUMP JUMPDEST JUMPDEST PUSH1 0x1 DUP3 ADD SWAP1 POP SWAP2 SWAP1 POP JUMP JUMPDEST PUSH1 0x0 PUSH1 0x20 DUP3 ADD SWAP1 POP PUSH2 0xB02 PUSH1 0x0 DUP4 ADD DUP5 PUSH2 0x7B1 JUMP JUMPDEST SWAP3 SWAP2 POP POP JUMP JUMPDEST PUSH1 0x0 DUP2 MLOAD SWAP1 POP PUSH2 0xB17 DUP2 PUSH2 0x726 JUMP JUMPDEST SWAP3 SWAP2 POP POP JUMP JUMPDEST PUSH1 0x0 PUSH1 0x20 DUP3 DUP5 SUB SLT ISZERO PUSH2 0xB33 JUMPI PUSH2 0xB32 PUSH2 0x66A JUMP JUMPDEST JUMPDEST PUSH1 0x0 PUSH2 0xB41 DUP5 DUP3 DUP6 ADD PUSH2 0xB08 JUMP JUMPDEST SWAP2 POP POP SWAP3 SWAP2 POP POP JUMP JUMPDEST PUSH1 0x0 PUSH2 0xB55 DUP3 PUSH2 0x636 JUMP JUMPDEST SWAP2 POP PUSH2 0xB60 DUP4 PUSH2 0x636 JUMP JUMPDEST SWAP3 POP DUP3 DUP3 MUL PUSH2 0xB6E DUP2 PUSH2 0x636 JUMP JUMPDEST SWAP2 POP DUP3 DUP3 DIV DUP5 EQ DUP4 ISZERO OR PUSH2 0xB85 JUMPI PUSH2 0xB84 PUSH2 0xA42 JUMP JUMPDEST JUMPDEST POP SWAP3 SWAP2 POP POP JUMP JUMPDEST PUSH32 0x4E487B7100000000000000000000000000000000000000000000000000000000 PUSH1 0x0 MSTORE PUSH1 0x12 PUSH1 0x4 MSTORE PUSH1 0x24 PUSH1 0x0 REVERT JUMPDEST PUSH1 0x0 PUSH2 0xBC6 DUP3 PUSH2 0x636 JUMP JUMPDEST SWAP2 POP PUSH2 0xBD1 DUP4 PUSH2 0x636 JUMP JUMPDEST SWAP3 POP DUP3 PUSH2 0xBE1 JUMPI PUSH2 0xBE0 PUSH2 0xB8C JUMP JUMPDEST JUMPDEST DUP3 DUP3 DIV SWAP1 POP SWAP3 SWAP2 POP POP JUMP JUMPDEST PUSH1 0x0 PUSH1 0x40 DUP3 ADD SWAP1 POP PUSH2 0xC01 PUSH1 0x0 DUP4 ADD DUP6 PUSH2 0x7B1 JUMP JUMPDEST PUSH2 0xC0E PUSH1 0x20 DUP4 ADD DUP5 PUSH2 0x640 JUMP JUMPDEST SWAP4 SWAP3 POP POP POP JUMP JUMPDEST PUSH1 0x0 DUP2 ISZERO ISZERO SWAP1 POP SWAP2 SWAP1 POP JUMP JUMPDEST PUSH2 0xC2A DUP2 PUSH2 0xC15 JUMP JUMPDEST DUP2 EQ PUSH2 0xC35 JUMPI PUSH1 0x0 DUP1 REVERT JUMPDEST POP JUMP JUMPDEST PUSH1 0x0 DUP2 MLOAD SWAP1 POP PUSH2 0xC47 DUP2 PUSH2 0xC21 JUMP JUMPDEST SWAP3 SWAP2 POP POP JUMP JUMPDEST PUSH1 0x0 PUSH1 0x20 DUP3 DUP5 SUB SLT ISZERO PUSH2 0xC63 JUMPI PUSH2 0xC62 PUSH2 0x66A JUMP JUMPDEST JUMPDEST PUSH1 0x0 PUSH2 0xC71 DUP5 DUP3 DUP6 ADD PUSH2 0xC38 JUMP JUMPDEST SWAP2 POP POP SWAP3 SWAP2 POP POP JUMP JUMPDEST PUSH1 0x0 DUP2 MLOAD SWAP1 POP SWAP2 SWAP1 POP JUMP JUMPDEST PUSH1 0x0 DUP2 SWAP1 POP SWAP3 SWAP2 POP POP JUMP JUMPDEST PUSH1 0x0 JUMPDEST DUP4 DUP2 LT ISZERO PUSH2 0xCAE JUMPI DUP1 DUP3 ADD MLOAD DUP2 DUP5 ADD MSTORE PUSH1 0x20 DUP2 ADD SWAP1 POP PUSH2 0xC93 JUMP JUMPDEST PUSH1 0x0 DUP5 DUP5 ADD MSTORE POP POP POP POP JUMP JUMPDEST PUSH1 0x0 PUSH2 0xCC5 DUP3 PUSH2 0xC7A JUMP JUMPDEST PUSH2 0xCCF DUP2 DUP6 PUSH2 0xC85 JUMP JUMPDEST SWAP4 POP PUSH2 0xCDF DUP2 DUP6 PUSH1 0x20 DUP7 ADD PUSH2 0xC90 JUMP JUMPDEST DUP1 DUP5 ADD SWAP2 POP POP SWAP3 SWAP2 POP POP JUMP JUMPDEST PUSH1 0x0 PUSH2 0xCF7 DUP3 DUP5 PUSH2 0xCBA JUMP JUMPDEST SWAP2 POP DUP2 SWAP1 POP SWAP3 SWAP2 POP POP JUMP JUMPDEST PUSH1 0x0 PUSH2 0xD0D DUP3 PUSH2 0x636 JUMP JUMPDEST SWAP2 POP PUSH2 0xD18 DUP4 PUSH2 0x636 JUMP JUMPDEST SWAP3 POP DUP3 DUP3 SUB SWAP1 POP DUP2 DUP2 GT ISZERO PUSH2 0xD30 JUMPI PUSH2 0xD2F PUSH2 0xA42 JUMP JUMPDEST JUMPDEST SWAP3 SWAP2 POP POP JUMP INVALID LOG2 PUSH5 0x6970667358 0x22 SLT KECCAK256 0xCA DUP10 RETURN PUSH28 0x5201FEAE8E81CDDB87C90F16424F659095465D45E0D67F7072E94FC4 PUSH5 0x736F6C6343 STOP ADDMOD GT STOP CALLER "},"methodIdentifiers":{"Split(address)":"d54a497a","lastGasLeft()":"49e5b9b3","percents(uint256)":"8db1342d","setPercents((uint256,address)[])":"27ffd3cd","sumPercent()":"1a32b41a","width()":"9ededf77"}}}}}