{"contracts/Counter.sol":{"Counter":{"abi":[{"inputs":[{"internalType":"uint256","name":"_gas","type":"uint256"},{"internalType":"uint256","name":"_amount","type":"uint256"},{"internalType":"address","name":"_addr","type":"address"}],"name":"Call","outputs":[{"internalType":"uint256","name":"myAmount","type":"uint256"},{"internalType":"string","name":"myString","type":"string"}],"stateMutability":"nonpayable","type":"function"},{"inputs":[{"internalType":"uint256","name":"am","type":"uint256"}],"name":"Count","outputs":[{"internalType":"uint256","name":"","type":"uint256"}],"stateMutability":"nonpayable","type":"function"},{"inputs":[{"internalType":"uint256","name":"_range","type":"uint256"}],"name":"countGas","outputs":[{"internalType":"uint256","name":"","type":"uint256"},{"internalType":"uint256","name":"","type":"uint256"}],"stateMutability":"view","type":"function"},{"inputs":[],"name":"counter","outputs":[{"internalType":"uint256","name":"","type":"uint256"}],"stateMutability":"view","type":"function"}],"evm":{"bytecode":{"linkReferences":{},"object":"60806040526000805534801561001457600080fd5b50610642806100246000396000f3fe608060405234801561001057600080fd5b506004361061004c5760003560e01c8063386093e21461005157806345540c971461008257806361bc221a146100b3578063ace32e43146100d1575b600080fd5b61006b60048036038101906100669190610370565b610101565b604051610079929190610462565b60405180910390f35b61009c60048036038101906100979190610492565b610249565b6040516100aa9291906104bf565b60405180910390f35b6100bb61028d565b6040516100c891906104e8565b60405180910390f35b6100eb60048036038101906100e69190610492565b610293565b6040516100f891906104e8565b60405180910390f35b600060606000808473ffffffffffffffffffffffffffffffffffffffff16878760405160240161013191906104e8565b6040516020818303038152906040527face32e43000000000000000000000000000000000000000000000000000000007bffffffffffffffffffffffffffffffffffffffffffffffffffffffff19166020820180517bffffffffffffffffffffffffffffffffffffffffffffffffffffffff83818316178352505050506040516101bb919061054a565b60006040518083038160008787f1925050503d80600081146101f9576040519150601f19603f3d011682016040523d82523d6000602084013e6101fe565b606091505b509150915060016040518060400160405280600681526020017f737472696e670000000000000000000000000000000000000000000000000000815250935093505050935093915050565b60008060005a905060005b8481101561026f57808061026790610590565b915050610254565b5060005a8261027e91906105d8565b90508082935093505050915091565b60005481565b6000806000905060005b838110156102c65781806102b090610590565b92505080806102be90610590565b91505061029d565b508060008190555080915050919050565b600080fd5b6000819050919050565b6102ef816102dc565b81146102fa57600080fd5b50565b60008135905061030c816102e6565b92915050565b600073ffffffffffffffffffffffffffffffffffffffff82169050919050565b600061033d82610312565b9050919050565b61034d81610332565b811461035857600080fd5b50565b60008135905061036a81610344565b92915050565b600080600060608486031215610389576103886102d7565b5b6000610397868287016102fd565b93505060206103a8868287016102fd565b92505060406103b98682870161035b565b9150509250925092565b6103cc816102dc565b82525050565b600081519050919050565b600082825260208201905092915050565b60005b8381101561040c5780820151818401526020810190506103f1565b60008484015250505050565b6000601f19601f8301169050919050565b6000610434826103d2565b61043e81856103dd565b935061044e8185602086016103ee565b61045781610418565b840191505092915050565b600060408201905061047760008301856103c3565b81810360208301526104898184610429565b90509392505050565b6000602082840312156104a8576104a76102d7565b5b60006104b6848285016102fd565b91505092915050565b60006040820190506104d460008301856103c3565b6104e160208301846103c3565b9392505050565b60006020820190506104fd60008301846103c3565b92915050565b600081519050919050565b600081905092915050565b600061052482610503565b61052e818561050e565b935061053e8185602086016103ee565b80840191505092915050565b60006105568284610519565b915081905092915050565b7f4e487b7100000000000000000000000000000000000000000000000000000000600052601160045260246000fd5b600061059b826102dc565b91507fffffffffffffffffffffffffffffffffffffffffffffffffffffffffffffffff82036105cd576105cc610561565b5b600182019050919050565b60006105e3826102dc565b91506105ee836102dc565b925082820390508181111561060657610605610561565b5b9291505056fea2646970667358221220a183b364428132c1b40f903d02f91d41d57653d21143e1cb75e28962b92c6b0264736f6c63430008110033","opcodes":"PUSH1 0x80 PUSH1 0x40 MSTORE PUSH1 0x0 DUP1 SSTORE CALLVALUE DUP1 ISZERO PUSH2 0x14 JUMPI PUSH1 0x0 DUP1 REVERT JUMPDEST POP PUSH2 0x642 DUP1 PUSH2 0x24 PUSH1 0x0 CODECOPY PUSH1 0x0 RETURN INVALID PUSH1 0x80 PUSH1 0x40 MSTORE CALLVALUE DUP1 ISZERO PUSH2 0x10 JUMPI PUSH1 0x0 DUP1 REVERT JUMPDEST POP PUSH1 0x4 CALLDATASIZE LT PUSH2 0x4C JUMPI PUSH1 0x0 CALLDATALOAD PUSH1 0xE0 SHR DUP1 PUSH4 0x386093E2 EQ PUSH2 0x51 JUMPI DUP1 PUSH4 0x45540C97 EQ PUSH2 0x82 JUMPI DUP1 PUSH4 0x61BC221A EQ PUSH2 0xB3 JUMPI DUP1 PUSH4 0xACE32E43 EQ PUSH2 0xD1 JUMPI JUMPDEST PUSH1 0x0 DUP1 REVERT JUMPDEST PUSH2 0x6B PUSH1 0x4 DUP1 CALLDATASIZE SUB DUP2 ADD SWAP1 PUSH2 0x66 SWAP2 SWAP1 PUSH2 0x370 JUMP JUMPDEST PUSH2 0x101 JUMP JUMPDEST PUSH1 0x40 MLOAD PUSH2 0x79 SWAP3 SWAP2 SWAP1 PUSH2 0x462 JUMP JUMPDEST PUSH1 0x40 MLOAD DUP1 SWAP2 SUB SWAP1 RETURN JUMPDEST PUSH2 0x9C PUSH1 0x4 DUP1 CALLDATASIZE SUB DUP2 ADD SWAP1 PUSH2 0x97 SWAP2 SWAP1 PUSH2 0x492 JUMP JUMPDEST PUSH2 0x249 JUMP JUMPDEST PUSH1 0x40 MLOAD PUSH2 0xAA SWAP3 SWAP2 SWAP1 PUSH2 0x4BF JUMP JUMPDEST PUSH1 0x40 MLOAD DUP1 SWAP2 SUB SWAP1 RETURN JUMPDEST PUSH2 0xBB PUSH2 0x28D JUMP JUMPDEST PUSH1 0x40 MLOAD PUSH2 0xC8 SWAP2 SWAP1 PUSH2 0x4E8 JUMP JUMPDEST PUSH1 0x40 MLOAD DUP1 SWAP2 SUB SWAP1 RETURN JUMPDEST PUSH2 0xEB PUSH1 0x4 DUP1 CALLDATASIZE SUB DUP2 ADD SWAP1 PUSH2 0xE6 SWAP2 SWAP1 PUSH2 0x492 JUMP JUMPDEST PUSH2 0x293 JUMP JUMPDEST PUSH1 0x40 MLOAD PUSH2 0xF8 SWAP2 SWAP1 PUSH2 0x4E8 JUMP JUMPDEST PUSH1 0x40 MLOAD DUP1 SWAP2 SUB SWAP1 RETURN JUMPDEST PUSH1 0x0 PUSH1 0x60 PUSH1 0x0 DUP1 DUP5 PUSH20 0xFFFFFFFFFFFFFFFFFFFFFFFFFFFFFFFFFFFFFFFF AND DUP8 DUP8 PUSH1 0x40 MLOAD PUSH1 0x24 ADD PUSH2 0x131 SWAP2 SWAP1 PUSH2 0x4E8 JUMP JUMPDEST PUSH1 0x40 MLOAD PUSH1 0x20 DUP2 DUP4 SUB SUB DUP2 MSTORE SWAP1 PUSH1 0x40 MSTORE PUSH32 0xACE32E4300000000000000000000000000000000000000000000000000000000 PUSH28 0xFFFFFFFFFFFFFFFFFFFFFFFFFFFFFFFFFFFFFFFFFFFFFFFFFFFFFFFF NOT AND PUSH1 0x20 DUP3 ADD DUP1 MLOAD PUSH28 0xFFFFFFFFFFFFFFFFFFFFFFFFFFFFFFFFFFFFFFFFFFFFFFFFFFFFFFFF DUP4 DUP2 DUP4 AND OR DUP4 MSTORE POP POP POP POP PUSH1 0x40 MLOAD PUSH2 0x1BB SWAP2 SWAP1 PUSH2 0x54A JUMP JUMPDEST PUSH1 0x0 PUSH1 0x40 MLOAD DUP1 DUP4 SUB DUP2 PUSH1 0x0 DUP8 DUP8 CALL SWAP3 POP POP POP RETURNDATASIZE DUP1 PUSH1 0x0 DUP2 EQ PUSH2 0x1F9 JUMPI PUSH1 0x40 MLOAD SWAP2 POP PUSH1 0x1F NOT PUSH1 0x3F RETURNDATASIZE ADD AND DUP3 ADD PUSH1 0x40 MSTORE RETURNDATASIZE DUP3 MSTORE RETURNDATASIZE PUSH1 0x0 PUSH1 0x20 DUP5 ADD RETURNDATACOPY PUSH2 0x1FE JUMP JUMPDEST PUSH1 0x60 SWAP2 POP JUMPDEST POP SWAP2 POP SWAP2 POP PUSH1 0x1 PUSH1 0x40 MLOAD DUP1 PUSH1 0x40 ADD PUSH1 0x40 MSTORE DUP1 PUSH1 0x6 DUP2 MSTORE PUSH1 0x20 ADD PUSH32 0x737472696E670000000000000000000000000000000000000000000000000000 DUP2 MSTORE POP SWAP4 POP SWAP4 POP POP POP SWAP4 POP SWAP4 SWAP2 POP POP JUMP JUMPDEST PUSH1 0x0 DUP1 PUSH1 0x0 GAS SWAP1 POP PUSH1 0x0 JUMPDEST DUP5 DUP2 LT ISZERO PUSH2 0x26F JUMPI DUP1 DUP1 PUSH2 0x267 SWAP1 PUSH2 0x590 JUMP JUMPDEST SWAP2 POP POP PUSH2 0x254 JUMP JUMPDEST POP PUSH1 0x0 GAS DUP3 PUSH2 0x27E SWAP2 SWAP1 PUSH2 0x5D8 JUMP JUMPDEST SWAP1 POP DUP1 DUP3 SWAP4 POP SWAP4 POP POP POP SWAP2 POP SWAP2 JUMP JUMPDEST PUSH1 0x0 SLOAD DUP2 JUMP JUMPDEST PUSH1 0x0 DUP1 PUSH1 0x0 SWAP1 POP PUSH1 0x0 JUMPDEST DUP4 DUP2 LT ISZERO PUSH2 0x2C6 JUMPI DUP2 DUP1 PUSH2 0x2B0 SWAP1 PUSH2 0x590 JUMP JUMPDEST SWAP3 POP POP DUP1 DUP1 PUSH2 0x2BE SWAP1 PUSH2 0x590 JUMP JUMPDEST SWAP2 POP POP PUSH2 0x29D JUMP JUMPDEST POP DUP1 PUSH1 0x0 DUP2 SWAP1 SSTORE POP DUP1 SWAP2 POP POP SWAP2 SWAP1 POP JUMP JUMPDEST PUSH1 0x0 DUP1 REVERT JUMPDEST PUSH1 0x0 DUP2 SWAP1 POP SWAP2 SWAP1 POP JUMP JUMPDEST PUSH2 0x2EF DUP2 PUSH2 0x2DC JUMP JUMPDEST DUP2 EQ PUSH2 0x2FA JUMPI PUSH1 0x0 DUP1 REVERT JUMPDEST POP JUMP JUMPDEST PUSH1 0x0 DUP2 CALLDATALOAD SWAP1 POP PUSH2 0x30C DUP2 PUSH2 0x2E6 JUMP JUMPDEST SWAP3 SWAP2 POP POP JUMP JUMPDEST PUSH1 0x0 PUSH20 0xFFFFFFFFFFFFFFFFFFFFFFFFFFFFFFFFFFFFFFFF DUP3 AND SWAP1 POP SWAP2 SWAP1 POP JUMP JUMPDEST PUSH1 0x0 PUSH2 0x33D DUP3 PUSH2 0x312 JUMP JUMPDEST SWAP1 POP SWAP2 SWAP1 POP JUMP JUMPDEST PUSH2 0x34D DUP2 PUSH2 0x332 JUMP JUMPDEST DUP2 EQ PUSH2 0x358 JUMPI PUSH1 0x0 DUP1 REVERT JUMPDEST POP JUMP JUMPDEST PUSH1 0x0 DUP2 CALLDATALOAD SWAP1 POP PUSH2 0x36A DUP2 PUSH2 0x344 JUMP JUMPDEST SWAP3 SWAP2 POP POP JUMP JUMPDEST PUSH1 0x0 DUP1 PUSH1 0x0 PUSH1 0x60 DUP5 DUP7 SUB SLT ISZERO PUSH2 0x389 JUMPI PUSH2 0x388 PUSH2 0x2D7 JUMP JUMPDEST JUMPDEST PUSH1 0x0 PUSH2 0x397 DUP7 DUP3 DUP8 ADD PUSH2 0x2FD JUMP JUMPDEST SWAP4 POP POP PUSH1 0x20 PUSH2 0x3A8 DUP7 DUP3 DUP8 ADD PUSH2 0x2FD JUMP JUMPDEST SWAP3 POP POP PUSH1 0x40 PUSH2 0x3B9 DUP7 DUP3 DUP8 ADD PUSH2 0x35B JUMP JUMPDEST SWAP2 POP POP SWAP3 POP SWAP3 POP SWAP3 JUMP JUMPDEST PUSH2 0x3CC DUP2 PUSH2 0x2DC JUMP JUMPDEST DUP3 MSTORE POP POP JUMP JUMPDEST PUSH1 0x0 DUP2 MLOAD SWAP1 POP SWAP2 SWAP1 POP JUMP JUMPDEST PUSH1 0x0 DUP3 DUP3 MSTORE PUSH1 0x20 DUP3 ADD SWAP1 POP SWAP3 SWAP2 POP POP JUMP JUMPDEST PUSH1 0x0 JUMPDEST DUP4 DUP2 LT ISZERO PUSH2 0x40C JUMPI DUP1 DUP3 ADD MLOAD DUP2 DUP5 ADD MSTORE PUSH1 0x20 DUP2 ADD SWAP1 POP PUSH2 0x3F1 JUMP JUMPDEST PUSH1 0x0 DUP5 DUP5 ADD MSTORE POP POP POP POP JUMP JUMPDEST PUSH1 0x0 PUSH1 0x1F NOT PUSH1 0x1F DUP4 ADD AND SWAP1 POP SWAP2 SWAP1 POP JUMP JUMPDEST PUSH1 0x0 PUSH2 0x434 DUP3 PUSH2 0x3D2 JUMP JUMPDEST PUSH2 0x43E DUP2 DUP6 PUSH2 0x3DD JUMP JUMPDEST SWAP4 POP PUSH2 0x44E DUP2 DUP6 PUSH1 0x20 DUP7 ADD PUSH2 0x3EE JUMP JUMPDEST PUSH2 0x457 DUP2 PUSH2 0x418 JUMP JUMPDEST DUP5 ADD SWAP2 POP POP SWAP3 SWAP2 POP POP JUMP JUMPDEST PUSH1 0x0 PUSH1 0x40 DUP3 ADD SWAP1 POP PUSH2 0x477 PUSH1 0x0 DUP4 ADD DUP6 PUSH2 0x3C3 JUMP JUMPDEST DUP2 DUP2 SUB PUSH1 0x20 DUP4 ADD MSTORE PUSH2 0x489 DUP2 DUP5 PUSH2 0x429 JUMP JUMPDEST SWAP1 POP SWAP4 SWAP3 POP POP POP JUMP JUMPDEST PUSH1 0x0 PUSH1 0x20 DUP3 DUP5 SUB SLT ISZERO PUSH2 0x4A8 JUMPI PUSH2 0x4A7 PUSH2 0x2D7 JUMP JUMPDEST JUMPDEST PUSH1 0x0 PUSH2 0x4B6 DUP5 DUP3 DUP6 ADD PUSH2 0x2FD JUMP JUMPDEST SWAP2 POP POP SWAP3 SWAP2 POP POP JUMP JUMPDEST PUSH1 0x0 PUSH1 0x40 DUP3 ADD SWAP1 POP PUSH2 0x4D4 PUSH1 0x0 DUP4 ADD DUP6 PUSH2 0x3C3 JUMP JUMPDEST PUSH2 0x4E1 PUSH1 0x20 DUP4 ADD DUP5 PUSH2 0x3C3 JUMP JUMPDEST SWAP4 SWAP3 POP POP POP JUMP JUMPDEST PUSH1 0x0 PUSH1 0x20 DUP3 ADD SWAP1 POP PUSH2 0x4FD PUSH1 0x0 DUP4 ADD DUP5 PUSH2 0x3C3 JUMP JUMPDEST SWAP3 SWAP2 POP POP JUMP JUMPDEST PUSH1 0x0 DUP2 MLOAD SWAP1 POP SWAP2 SWAP1 POP JUMP JUMPDEST PUSH1 0x0 DUP2 SWAP1 POP SWAP3 SWAP2 POP POP JUMP JUMPDEST PUSH1 0x0 PUSH2 0x524 DUP3 PUSH2 0x503 JUMP JUMPDEST PUSH2 0x52E DUP2 DUP6 PUSH2 0x50E JUMP JUMPDEST SWAP4 POP PUSH2 0x53E DUP2 DUP6 PUSH1 0x20 DUP7 ADD PUSH2 0x3EE JUMP JUMPDEST DUP1 DUP5 ADD SWAP2 POP POP SWAP3 SWAP2 POP POP JUMP JUMPDEST PUSH1 0x0 PUSH2 0x556 DUP3 DUP5 PUSH2 0x519 JUMP JUMPDEST SWAP2 POP DUP2 SWAP1 POP SWAP3 SWAP2 POP POP JUMP JUMPDEST PUSH32 0x4E487B7100000000000000000000000000000000000000000000000000000000 PUSH1 0x0 MSTORE PUSH1 0x11 PUSH1 0x4 MSTORE PUSH1 0x24 PUSH1 0x0 REVERT JUMPDEST PUSH1 0x0 PUSH2 0x59B DUP3 PUSH2 0x2DC JUMP JUMPDEST SWAP2 POP PUSH32 0xFFFFFFFFFFFFFFFFFFFFFFFFFFFFFFFFFFFFFFFFFFFFFFFFFFFFFFFFFFFFFFFF DUP3 SUB PUSH2 0x5CD JUMPI PUSH2 0x5CC PUSH2 0x561 JUMP JUMPDEST JUMPDEST PUSH1 0x1 DUP3 ADD SWAP1 POP SWAP2 SWAP1 POP JUMP JUMPDEST PUSH1 0x0 PUSH2 0x5E3 DUP3 PUSH2 0x2DC JUMP JUMPDEST SWAP2 POP PUSH2 0x5EE DUP4 PUSH2 0x2DC JUMP JUMPDEST SWAP3 POP DUP3 DUP3 SUB SWAP1 POP DUP2 DUP2 GT ISZERO PUSH2 0x606 JUMPI PUSH2 0x605 PUSH2 0x561 JUMP JUMPDEST JUMPDEST SWAP3 SWAP2 POP POP JUMP INVALID LOG2 PUSH5 0x6970667358 0x22 SLT KECCAK256 LOG1 DUP4 0xB3 PUSH5 0x428132C1B4 0xF SWAP1 RETURNDATASIZE MUL 0xF9 SAR COINBASE 0xD5 PUSH23 0x53D21143E1CB75E28962B92C6B0264736F6C6343000811 STOP CALLER "},"methodIdentifiers":{"Call(uint256,uint256,address)":"386093e2","Count(uint256)":"ace32e43","countGas(uint256)":"45540c97","counter()":"61bc221a"}}}}}