{
  "_format": "hh-sol-artifact-1",
  "contractName": "Book",
  "sourceName": "contracts/Book.sol",
  "abi": [
    {
      "inputs": [
        {
          "internalType": "uint256",
          "name": "",
          "type": "uint256"
        }
      ],
      "name": "percents",
      "outputs": [
        {
          "internalType": "uint256",
          "name": "percent",
          "type": "uint256"
        },
        {
          "internalType": "address",
          "name": "addr",
          "type": "address"
        }
      ],
      "stateMutability": "view",
      "type": "function"
    },
    {
      "inputs": [
        {
          "components": [
            {
              "internalType": "uint256",
              "name": "percent",
              "type": "uint256"
            },
            {
              "internalType": "address",
              "name": "addr",
              "type": "address"
            }
          ],
          "internalType": "struct Book.Percent[]",
          "name": "_percents",
          "type": "tuple[]"
        }
      ],
      "name": "setPercents",
      "outputs": [],
      "stateMutability": "nonpayable",
      "type": "function"
    },
    {
      "inputs": [],
      "name": "sumPercent",
      "outputs": [
        {
          "internalType": "uint256",
          "name": "",
          "type": "uint256"
        }
      ],
      "stateMutability": "view",
      "type": "function"
    }
  ],
  "bytecode": "0x608060405234801561001057600080fd5b506106e1806100206000396000f3fe608060405234801561001057600080fd5b50600436106100415760003560e01c80631a32b41a1461004657806327ffd3cd146100645780638db1342d14610080575b600080fd5b61004e6100b1565b60405161005b919061024f565b60405180910390f35b61007e600480360381019061007991906102d9565b6100b7565b005b61009a60048036038101906100959190610352565b610178565b6040516100a89291906103c0565b60405180910390f35b60005481565b600160006100c591906101cc565b6000808190555060005b828290508110156101735760018383838181106100ef576100ee6103e9565b5b9050604002019080600181540180825580915050600190039060005260206000209060020201600090919091909150818161012a91906105f2565b505082828281811061013f5761013e6103e9565b5b90506040020160000135600080828254610159919061062f565b92505081905550808061016b90610663565b9150506100cf565b505050565b6001818154811061018857600080fd5b90600052602060002090600202016000915090508060000154908060010160009054906101000a900473ffffffffffffffffffffffffffffffffffffffff16905082565b50805460008255600202906000526020600020908101906101ed91906101f0565b50565b5b80821115610232576000808201600090556001820160006101000a81549073ffffffffffffffffffffffffffffffffffffffff0219169055506002016101f1565b5090565b6000819050919050565b61024981610236565b82525050565b60006020820190506102646000830184610240565b92915050565b600080fd5b600080fd5b600080fd5b600080fd5b600080fd5b60008083601f84011261029957610298610274565b5b8235905067ffffffffffffffff8111156102b6576102b5610279565b5b6020830191508360408202830111156102d2576102d161027e565b5b9250929050565b600080602083850312156102f0576102ef61026a565b5b600083013567ffffffffffffffff81111561030e5761030d61026f565b5b61031a85828601610283565b92509250509250929050565b61032f81610236565b811461033a57600080fd5b50565b60008135905061034c81610326565b92915050565b6000602082840312156103685761036761026a565b5b60006103768482850161033d565b91505092915050565b600073ffffffffffffffffffffffffffffffffffffffff82169050919050565b60006103aa8261037f565b9050919050565b6103ba8161039f565b82525050565b60006040820190506103d56000830185610240565b6103e260208301846103b1565b9392505050565b7f4e487b7100000000000000000000000000000000000000000000000000000000600052603260045260246000fd5b6000813561042581610326565b80915050919050565b60008160001b9050919050565b60007fffffffffffffffffffffffffffffffffffffffffffffffffffffffffffffffff6104678461042e565b9350801983169250808416831791505092915050565b6000819050919050565b60006104a261049d61049884610236565b61047d565b610236565b9050919050565b6000819050919050565b6104bc82610487565b6104cf6104c8826104a9565b835461043b565b8255505050565b6104df8161039f565b81146104ea57600080fd5b50565b600081356104fa816104d6565b80915050919050565b600073ffffffffffffffffffffffffffffffffffffffff6105238461042e565b9350801983169250808416831791505092915050565b600061055461054f61054a8461037f565b61047d565b61037f565b9050919050565b600061056682610539565b9050919050565b60006105788261055b565b9050919050565b6000819050919050565b6105928261056d565b6105a561059e8261057f565b8354610503565b8255505050565b6000810160008301806105be81610418565b90506105ca81846104b3565b5050506001810160208301806105df816104ed565b90506105eb8184610589565b5050505050565b6105fc82826105ac565b5050565b7f4e487b7100000000000000000000000000000000000000000000000000000000600052601160045260246000fd5b600061063a82610236565b915061064583610236565b925082820190508082111561065d5761065c610600565b5b92915050565b600061066e82610236565b91507fffffffffffffffffffffffffffffffffffffffffffffffffffffffffffffffff82036106a05761069f610600565b5b60018201905091905056fea2646970667358221220c91fbef76b251e6b446d7689dfeffe90c01e4489abf3e8f88fbc6abdef8f65db64736f6c63430008110033",
  "linkReferences": {},
  "deployedLinkReferences": {}
}