{
  "_format": "hh-sol-artifact-1",
  "contractName": "Counter",
  "sourceName": "contracts/Counter.sol",
  "abi": [
    {
      "inputs": [
        {
          "internalType": "uint256",
          "name": "_gas",
          "type": "uint256"
        },
        {
          "internalType": "uint256",
          "name": "_amount",
          "type": "uint256"
        },
        {
          "internalType": "address",
          "name": "_addr",
          "type": "address"
        }
      ],
      "name": "Call",
      "outputs": [
        {
          "internalType": "uint256",
          "name": "myAmount",
          "type": "uint256"
        },
        {
          "internalType": "string",
          "name": "myString",
          "type": "string"
        }
      ],
      "stateMutability": "nonpayable",
      "type": "function"
    },
    {
      "inputs": [
        {
          "internalType": "uint256",
          "name": "am",
          "type": "uint256"
        }
      ],
      "name": "Count",
      "outputs": [
        {
          "internalType": "uint256",
          "name": "",
          "type": "uint256"
        }
      ],
      "stateMutability": "nonpayable",
      "type": "function"
    },
    {
      "inputs": [
        {
          "internalType": "uint256",
          "name": "_range",
          "type": "uint256"
        }
      ],
      "name": "countGas",
      "outputs": [
        {
          "internalType": "uint256",
          "name": "",
          "type": "uint256"
        },
        {
          "internalType": "uint256",
          "name": "",
          "type": "uint256"
        }
      ],
      "stateMutability": "view",
      "type": "function"
    },
    {
      "inputs": [],
      "name": "counter",
      "outputs": [
        {
          "internalType": "uint256",
          "name": "",
          "type": "uint256"
        }
      ],
      "stateMutability": "view",
      "type": "function"
    }
  ],
  "bytecode": "0x60806040526000805534801561001457600080fd5b50610642806100246000396000f3fe608060405234801561001057600080fd5b506004361061004c5760003560e01c8063386093e21461005157806345540c971461008257806361bc221a146100b3578063ace32e43146100d1575b600080fd5b61006b60048036038101906100669190610370565b610101565b604051610079929190610462565b60405180910390f35b61009c60048036038101906100979190610492565b610249565b6040516100aa9291906104bf565b60405180910390f35b6100bb61028d565b6040516100c891906104e8565b60405180910390f35b6100eb60048036038101906100e69190610492565b610293565b6040516100f891906104e8565b60405180910390f35b600060606000808473ffffffffffffffffffffffffffffffffffffffff16878760405160240161013191906104e8565b6040516020818303038152906040527face32e43000000000000000000000000000000000000000000000000000000007bffffffffffffffffffffffffffffffffffffffffffffffffffffffff19166020820180517bffffffffffffffffffffffffffffffffffffffffffffffffffffffff83818316178352505050506040516101bb919061054a565b60006040518083038160008787f1925050503d80600081146101f9576040519150601f19603f3d011682016040523d82523d6000602084013e6101fe565b606091505b509150915060016040518060400160405280600681526020017f737472696e670000000000000000000000000000000000000000000000000000815250935093505050935093915050565b60008060005a905060005b8481101561026f57808061026790610590565b915050610254565b5060005a8261027e91906105d8565b90508082935093505050915091565b60005481565b6000806000905060005b838110156102c65781806102b090610590565b92505080806102be90610590565b91505061029d565b508060008190555080915050919050565b600080fd5b6000819050919050565b6102ef816102dc565b81146102fa57600080fd5b50565b60008135905061030c816102e6565b92915050565b600073ffffffffffffffffffffffffffffffffffffffff82169050919050565b600061033d82610312565b9050919050565b61034d81610332565b811461035857600080fd5b50565b60008135905061036a81610344565b92915050565b600080600060608486031215610389576103886102d7565b5b6000610397868287016102fd565b93505060206103a8868287016102fd565b92505060406103b98682870161035b565b9150509250925092565b6103cc816102dc565b82525050565b600081519050919050565b600082825260208201905092915050565b60005b8381101561040c5780820151818401526020810190506103f1565b60008484015250505050565b6000601f19601f8301169050919050565b6000610434826103d2565b61043e81856103dd565b935061044e8185602086016103ee565b61045781610418565b840191505092915050565b600060408201905061047760008301856103c3565b81810360208301526104898184610429565b90509392505050565b6000602082840312156104a8576104a76102d7565b5b60006104b6848285016102fd565b91505092915050565b60006040820190506104d460008301856103c3565b6104e160208301846103c3565b9392505050565b60006020820190506104fd60008301846103c3565b92915050565b600081519050919050565b600081905092915050565b600061052482610503565b61052e818561050e565b935061053e8185602086016103ee565b80840191505092915050565b60006105568284610519565b915081905092915050565b7f4e487b7100000000000000000000000000000000000000000000000000000000600052601160045260246000fd5b600061059b826102dc565b91507fffffffffffffffffffffffffffffffffffffffffffffffffffffffffffffffff82036105cd576105cc610561565b5b600182019050919050565b60006105e3826102dc565b91506105ee836102dc565b925082820390508181111561060657610605610561565b5b9291505056fea2646970667358221220a183b364428132c1b40f903d02f91d41d57653d21143e1cb75e28962b92c6b0264736f6c63430008110033",
  "linkReferences": {},
  "deployedLinkReferences": {}
}